{
  "address": "0xaD2A9E0C3C732D4De17bE93F44b742b113c710b9",
  "abi": [
    {
      "inputs": [
        {
          "internalType": "address",
          "name": "vat_",
          "type": "address"
        }
      ],
      "stateMutability": "nonpayable",
      "type": "constructor"
    },
    {
      "anonymous": false,
      "inputs": [
        {
          "indexed": true,
          "internalType": "bytes32",
          "name": "ilk",
          "type": "bytes32"
        },
        {
          "indexed": true,
          "internalType": "address",
          "name": "urn",
          "type": "address"
        },
        {
          "indexed": false,
          "internalType": "uint256",
          "name": "ink",
          "type": "uint256"
        },
        {
          "indexed": false,
          "internalType": "uint256",
          "name": "art",
          "type": "uint256"
        },
        {
          "indexed": false,
          "internalType": "uint256",
          "name": "due",
          "type": "uint256"
        },
        {
          "indexed": false,
          "internalType": "address",
          "name": "clip",
          "type": "address"
        },
        {
          "indexed": true,
          "internalType": "uint256",
          "name": "id",
          "type": "uint256"
        }
      ],
      "name": "Bark",
      "type": "event"
    },
    {
      "anonymous": false,
      "inputs": [],
      "name": "Cage",
      "type": "event"
    },
    {
      "anonymous": false,
      "inputs": [
        {
          "indexed": true,
          "internalType": "address",
          "name": "usr",
          "type": "address"
        }
      ],
      "name": "Deny",
      "type": "event"
    },
    {
      "anonymous": false,
      "inputs": [
        {
          "indexed": true,
          "internalType": "bytes32",
          "name": "ilk",
          "type": "bytes32"
        },
        {
          "indexed": false,
          "internalType": "uint256",
          "name": "rad",
          "type": "uint256"
        }
      ],
      "name": "Digs",
      "type": "event"
    },
    {
      "anonymous": false,
      "inputs": [
        {
          "indexed": true,
          "internalType": "bytes32",
          "name": "what",
          "type": "bytes32"
        },
        {
          "indexed": false,
          "internalType": "uint256",
          "name": "data",
          "type": "uint256"
        }
      ],
      "name": "File",
      "type": "event"
    },
    {
      "anonymous": false,
      "inputs": [
        {
          "indexed": true,
          "internalType": "bytes32",
          "name": "what",
          "type": "bytes32"
        },
        {
          "indexed": false,
          "internalType": "address",
          "name": "data",
          "type": "address"
        }
      ],
      "name": "File",
      "type": "event"
    },
    {
      "anonymous": false,
      "inputs": [
        {
          "indexed": true,
          "internalType": "bytes32",
          "name": "ilk",
          "type": "bytes32"
        },
        {
          "indexed": true,
          "internalType": "bytes32",
          "name": "what",
          "type": "bytes32"
        },
        {
          "indexed": false,
          "internalType": "uint256",
          "name": "data",
          "type": "uint256"
        }
      ],
      "name": "File",
      "type": "event"
    },
    {
      "anonymous": false,
      "inputs": [
        {
          "indexed": true,
          "internalType": "bytes32",
          "name": "ilk",
          "type": "bytes32"
        },
        {
          "indexed": true,
          "internalType": "bytes32",
          "name": "what",
          "type": "bytes32"
        },
        {
          "indexed": false,
          "internalType": "address",
          "name": "clip",
          "type": "address"
        }
      ],
      "name": "File",
      "type": "event"
    },
    {
      "anonymous": false,
      "inputs": [
        {
          "indexed": true,
          "internalType": "address",
          "name": "usr",
          "type": "address"
        }
      ],
      "name": "Rely",
      "type": "event"
    },
    {
      "inputs": [],
      "name": "Dirt",
      "outputs": [
        {
          "internalType": "uint256",
          "name": "",
          "type": "uint256"
        }
      ],
      "stateMutability": "view",
      "type": "function"
    },
    {
      "inputs": [],
      "name": "Hole",
      "outputs": [
        {
          "internalType": "uint256",
          "name": "",
          "type": "uint256"
        }
      ],
      "stateMutability": "view",
      "type": "function"
    },
    {
      "inputs": [
        {
          "internalType": "bytes32",
          "name": "ilk",
          "type": "bytes32"
        },
        {
          "internalType": "address",
          "name": "urn",
          "type": "address"
        },
        {
          "internalType": "address",
          "name": "kpr",
          "type": "address"
        }
      ],
      "name": "bark",
      "outputs": [
        {
          "internalType": "uint256",
          "name": "id",
          "type": "uint256"
        }
      ],
      "stateMutability": "nonpayable",
      "type": "function"
    },
    {
      "inputs": [],
      "name": "cage",
      "outputs": [],
      "stateMutability": "nonpayable",
      "type": "function"
    },
    {
      "inputs": [
        {
          "internalType": "bytes32",
          "name": "ilk",
          "type": "bytes32"
        }
      ],
      "name": "chop",
      "outputs": [
        {
          "internalType": "uint256",
          "name": "",
          "type": "uint256"
        }
      ],
      "stateMutability": "view",
      "type": "function"
    },
    {
      "inputs": [
        {
          "internalType": "address",
          "name": "usr",
          "type": "address"
        }
      ],
      "name": "deny",
      "outputs": [],
      "stateMutability": "nonpayable",
      "type": "function"
    },
    {
      "inputs": [
        {
          "internalType": "bytes32",
          "name": "ilk",
          "type": "bytes32"
        },
        {
          "internalType": "uint256",
          "name": "rad",
          "type": "uint256"
        }
      ],
      "name": "digs",
      "outputs": [],
      "stateMutability": "nonpayable",
      "type": "function"
    },
    {
      "inputs": [
        {
          "internalType": "bytes32",
          "name": "ilk",
          "type": "bytes32"
        },
        {
          "internalType": "bytes32",
          "name": "what",
          "type": "bytes32"
        },
        {
          "internalType": "uint256",
          "name": "data",
          "type": "uint256"
        }
      ],
      "name": "file",
      "outputs": [],
      "stateMutability": "nonpayable",
      "type": "function"
    },
    {
      "inputs": [
        {
          "internalType": "bytes32",
          "name": "what",
          "type": "bytes32"
        },
        {
          "internalType": "uint256",
          "name": "data",
          "type": "uint256"
        }
      ],
      "name": "file",
      "outputs": [],
      "stateMutability": "nonpayable",
      "type": "function"
    },
    {
      "inputs": [
        {
          "internalType": "bytes32",
          "name": "what",
          "type": "bytes32"
        },
        {
          "internalType": "address",
          "name": "data",
          "type": "address"
        }
      ],
      "name": "file",
      "outputs": [],
      "stateMutability": "nonpayable",
      "type": "function"
    },
    {
      "inputs": [
        {
          "internalType": "bytes32",
          "name": "ilk",
          "type": "bytes32"
        },
        {
          "internalType": "bytes32",
          "name": "what",
          "type": "bytes32"
        },
        {
          "internalType": "address",
          "name": "clip",
          "type": "address"
        }
      ],
      "name": "file",
      "outputs": [],
      "stateMutability": "nonpayable",
      "type": "function"
    },
    {
      "inputs": [
        {
          "internalType": "bytes32",
          "name": "",
          "type": "bytes32"
        }
      ],
      "name": "ilks",
      "outputs": [
        {
          "internalType": "address",
          "name": "clip",
          "type": "address"
        },
        {
          "internalType": "uint256",
          "name": "chop",
          "type": "uint256"
        },
        {
          "internalType": "uint256",
          "name": "hole",
          "type": "uint256"
        },
        {
          "internalType": "uint256",
          "name": "dirt",
          "type": "uint256"
        }
      ],
      "stateMutability": "view",
      "type": "function"
    },
    {
      "inputs": [],
      "name": "live",
      "outputs": [
        {
          "internalType": "uint256",
          "name": "",
          "type": "uint256"
        }
      ],
      "stateMutability": "view",
      "type": "function"
    },
    {
      "inputs": [
        {
          "internalType": "address",
          "name": "usr",
          "type": "address"
        }
      ],
      "name": "rely",
      "outputs": [],
      "stateMutability": "nonpayable",
      "type": "function"
    },
    {
      "inputs": [],
      "name": "vat",
      "outputs": [
        {
          "internalType": "contract VatLike",
          "name": "",
          "type": "address"
        }
      ],
      "stateMutability": "view",
      "type": "function"
    },
    {
      "inputs": [],
      "name": "vow",
      "outputs": [
        {
          "internalType": "contract VowLike",
          "name": "",
          "type": "address"
        }
      ],
      "stateMutability": "view",
      "type": "function"
    },
    {
      "inputs": [
        {
          "internalType": "address",
          "name": "",
          "type": "address"
        }
      ],
      "name": "wards",
      "outputs": [
        {
          "internalType": "uint256",
          "name": "",
          "type": "uint256"
        }
      ],
      "stateMutability": "view",
      "type": "function"
    }
  ],
  "transactionHash": "0x94206c1005c6bc2e871f6dcafcc8a627c86a0d1f481145aa9f7a51253bc578b0",
  "args": [
    "0x310dbaab8dde911c229821a997ff8b3b1d37ae1c"
  ],
  "numDeployments": 1,
  "solcInputHash": "ed048294ed74b7abd11bdebd540fd1ff",
  "bytecode": "0x60a060405234801561001057600080fd5b50604051611f92380380611f928339818101604052602081101561003357600080fd5b81019080805190602001909291905050508073ffffffffffffffffffffffffffffffffffffffff1660808173ffffffffffffffffffffffffffffffffffffffff1660601b81525050600160038190555060016000803373ffffffffffffffffffffffffffffffffffffffff1673ffffffffffffffffffffffffffffffffffffffff168152602001908152602001600020819055503373ffffffffffffffffffffffffffffffffffffffff167fdd0e34038ac38b2a1ce960229778ac48a8719bc900b6c4f8d0475c6e8b385a6060405160405180910390a25060805160601c611e5b610137600039806109485280611414528061158d52806119bc5250611e5b6000f3fe608060405234801561001057600080fd5b506004361061010b5760003560e01c8063af7cfeb1116100a2578063d792653811610071578063d79265381461039e578063d9638d36146103e0578063ebecb39d1461044d578063ed998908146104a5578063eda6e121146105275761010b565b8063af7cfeb1146102a2578063bf353dbb146102c0578063c87193f414610318578063d4e8be83146103505761010b565b806365fae35e116100de57806365fae35e146101f25780636924500914610236578063957aa58c146102405780639c52a7f11461025e5761010b565b80631a0b287e1461011057806329ae81141461015257806336569e771461018a578063626cb3c5146101be575b600080fd5b6101506004803603606081101561012657600080fd5b81019080803590602001909291908035906020019092919080359060200190929190505050610545565b005b6101886004803603604081101561016857600080fd5b8101908080359060200190929190803590602001909291905050506107b4565b005b610192610946565b604051808273ffffffffffffffffffffffffffffffffffffffff16815260200191505060405180910390f35b6101c661096a565b604051808273ffffffffffffffffffffffffffffffffffffffff16815260200191505060405180910390f35b6102346004803603602081101561020857600080fd5b81019080803573ffffffffffffffffffffffffffffffffffffffff169060200190929190505050610990565b005b61023e610ace565b005b610248610bb8565b6040518082815260200191505060405180910390f35b6102a06004803603602081101561027457600080fd5b81019080803573ffffffffffffffffffffffffffffffffffffffff169060200190929190505050610bbe565b005b6102aa610cfc565b6040518082815260200191505060405180910390f35b610302600480360360208110156102d657600080fd5b81019080803573ffffffffffffffffffffffffffffffffffffffff169060200190929190505050610d02565b6040518082815260200191505060405180910390f35b61034e6004803603604081101561032e57600080fd5b810190808035906020019092919080359060200190929190505050610d1a565b005b61039c6004803603604081101561036657600080fd5b8101908080359060200190929190803573ffffffffffffffffffffffffffffffffffffffff169060200190929190505050610e56565b005b6103ca600480360360208110156103b457600080fd5b8101908080359060200190929190505050611038565b6040518082815260200191505060405180910390f35b61040c600480360360208110156103f657600080fd5b8101908080359060200190929190505050611058565b604051808573ffffffffffffffffffffffffffffffffffffffff16815260200184815260200183815260200182815260200194505050505060405180910390f35b6104a36004803603606081101561046357600080fd5b810190808035906020019092919080359060200190929190803573ffffffffffffffffffffffffffffffffffffffff1690602001909291905050506110a8565b005b610511600480360360608110156104bb57600080fd5b8101908080359060200190929190803573ffffffffffffffffffffffffffffffffffffffff169060200190929190803573ffffffffffffffffffffffffffffffffffffffff169060200190929190505050611395565b6040518082815260200191505060405180910390f35b61052f611d3d565b6040518082815260200191505060405180910390f35b60016000803373ffffffffffffffffffffffffffffffffffffffff1673ffffffffffffffffffffffffffffffffffffffff16815260200190815260200160002054146105f9576040517f08c379a00000000000000000000000000000000000000000000000000000000081526004018080602001828103825260128152602001807f446f672f6e6f742d617574686f72697a6564000000000000000000000000000081525060200191505060405180910390fd5b7f63686f70000000000000000000000000000000000000000000000000000000008214156106bf57670de0b6b3a764000081101561069f576040517f08c379a00000000000000000000000000000000000000000000000000000000081526004018080602001828103825260148152602001807f446f672f66696c652d63686f702d6c742d57414400000000000000000000000081525060200191505060405180910390fd5b806001600085815260200190815260200160002060010181905550610776565b7f686f6c650000000000000000000000000000000000000000000000000000000082141561070757806001600085815260200190815260200160002060020181905550610775565b6040517f08c379a000000000000000000000000000000000000000000000000000000000815260040180806020018281038252601b8152602001807f446f672f66696c652d756e7265636f676e697a65642d706172616d000000000081525060200191505060405180910390fd5b5b81837f851aa1caf4888170ad8875449d18f0f512fd6deb2a6571ea1a41fb9f95acbcd1836040518082815260200191505060405180910390a3505050565b60016000803373ffffffffffffffffffffffffffffffffffffffff1673ffffffffffffffffffffffffffffffffffffffff1681526020019081526020016000205414610868576040517f08c379a00000000000000000000000000000000000000000000000000000000081526004018080602001828103825260128152602001807f446f672f6e6f742d617574686f72697a6564000000000000000000000000000081525060200191505060405180910390fd5b7f486f6c650000000000000000000000000000000000000000000000000000000082141561089c578060048190555061090a565b6040517f08c379a000000000000000000000000000000000000000000000000000000000815260040180806020018281038252601b8152602001807f446f672f66696c652d756e7265636f676e697a65642d706172616d000000000081525060200191505060405180910390fd5b817fe986e40cc8c151830d4f61050f4fb2e4add8567caad2d5f5496f9158e91fe4c7826040518082815260200191505060405180910390a25050565b7f000000000000000000000000000000000000000000000000000000000000000081565b600260009054906101000a900473ffffffffffffffffffffffffffffffffffffffff1681565b60016000803373ffffffffffffffffffffffffffffffffffffffff1673ffffffffffffffffffffffffffffffffffffffff1681526020019081526020016000205414610a44576040517f08c379a00000000000000000000000000000000000000000000000000000000081526004018080602001828103825260128152602001807f446f672f6e6f742d617574686f72697a6564000000000000000000000000000081525060200191505060405180910390fd5b60016000808373ffffffffffffffffffffffffffffffffffffffff1673ffffffffffffffffffffffffffffffffffffffff168152602001908152602001600020819055508073ffffffffffffffffffffffffffffffffffffffff167fdd0e34038ac38b2a1ce960229778ac48a8719bc900b6c4f8d0475c6e8b385a6060405160405180910390a250565b60016000803373ffffffffffffffffffffffffffffffffffffffff1673ffffffffffffffffffffffffffffffffffffffff1681526020019081526020016000205414610b82576040517f08c379a00000000000000000000000000000000000000000000000000000000081526004018080602001828103825260128152602001807f446f672f6e6f742d617574686f72697a6564000000000000000000000000000081525060200191505060405180910390fd5b60006003819055507f2308ed18a14e800c39b86eb6ea43270105955ca385b603b64eca89f98ae8fbda60405160405180910390a1565b60035481565b60016000803373ffffffffffffffffffffffffffffffffffffffff1673ffffffffffffffffffffffffffffffffffffffff1681526020019081526020016000205414610c72576040517f08c379a00000000000000000000000000000000000000000000000000000000081526004018080602001828103825260128152602001807f446f672f6e6f742d617574686f72697a6564000000000000000000000000000081525060200191505060405180910390fd5b60008060008373ffffffffffffffffffffffffffffffffffffffff1673ffffffffffffffffffffffffffffffffffffffff168152602001908152602001600020819055508073ffffffffffffffffffffffffffffffffffffffff167f184450df2e323acec0ed3b5c7531b81f9b4cdef7914dfd4c0a4317416bb5251b60405160405180910390a250565b60045481565b60006020528060005260406000206000915090505481565b60016000803373ffffffffffffffffffffffffffffffffffffffff1673ffffffffffffffffffffffffffffffffffffffff1681526020019081526020016000205414610dce576040517f08c379a00000000000000000000000000000000000000000000000000000000081526004018080602001828103825260128152602001807f446f672f6e6f742d617574686f72697a6564000000000000000000000000000081525060200191505060405180910390fd5b610dda60055482611d43565b600581905550610e00600160008481526020019081526020016000206003015482611d43565b6001600084815260200190815260200160002060030181905550817f54f095dc7308776bf01e8580e4dd40fd959ea4bf50b069975768320ef8d77d8a826040518082815260200191505060405180910390a25050565b60016000803373ffffffffffffffffffffffffffffffffffffffff1673ffffffffffffffffffffffffffffffffffffffff1681526020019081526020016000205414610f0a576040517f08c379a00000000000000000000000000000000000000000000000000000000081526004018080602001828103825260128152602001807f446f672f6e6f742d617574686f72697a6564000000000000000000000000000081525060200191505060405180910390fd5b7f766f770000000000000000000000000000000000000000000000000000000000821415610f785780600260006101000a81548173ffffffffffffffffffffffffffffffffffffffff021916908373ffffffffffffffffffffffffffffffffffffffff160217905550610fe6565b6040517f08c379a000000000000000000000000000000000000000000000000000000000815260040180806020018281038252601b8152602001807f446f672f66696c652d756e7265636f676e697a65642d706172616d000000000081525060200191505060405180910390fd5b817f8fef588b5fc1afbf5b2f06c1a435d513f208da2e6704c3d8f0e0ec91167066ba82604051808273ffffffffffffffffffffffffffffffffffffffff16815260200191505060405180910390a25050565b600060016000838152602001908152602001600020600101549050919050565b60016020528060005260406000206000915090508060000160009054906101000a900473ffffffffffffffffffffffffffffffffffffffff16908060010154908060020154908060030154905084565b60016000803373ffffffffffffffffffffffffffffffffffffffff1673ffffffffffffffffffffffffffffffffffffffff168152602001908152602001600020541461115c576040517f08c379a00000000000000000000000000000000000000000000000000000000081526004018080602001828103825260128152602001807f446f672f6e6f742d617574686f72697a6564000000000000000000000000000081525060200191505060405180910390fd5b7f636c6970000000000000000000000000000000000000000000000000000000008214156112d3578073ffffffffffffffffffffffffffffffffffffffff1663c5ce281e6040518163ffffffff1660e01b815260040160206040518083038186803b1580156111ca57600080fd5b505afa1580156111de573d6000803e3d6000fd5b505050506040513d60208110156111f457600080fd5b81019080805190602001909291905050508314611279576040517f08c379a00000000000000000000000000000000000000000000000000000000081526004018080602001828103825260198152602001807f446f672f66696c652d696c6b2d6e65712d636c69702e696c6b0000000000000081525060200191505060405180910390fd5b806001600085815260200190815260200160002060000160006101000a81548173ffffffffffffffffffffffffffffffffffffffff021916908373ffffffffffffffffffffffffffffffffffffffff160217905550611341565b6040517f08c379a000000000000000000000000000000000000000000000000000000000815260040180806020018281038252601b8152602001807f446f672f66696c652d756e7265636f676e697a65642d706172616d000000000081525060200191505060405180910390fd5b81837f4ff2caaa972a7c6629ea01fae9c93d73cc307d13ea4c369f9bbbb7f9b7e9461d83604051808273ffffffffffffffffffffffffffffffffffffffff16815260200191505060405180910390a3505050565b600060016003541461140f576040517f08c379a000000000000000000000000000000000000000000000000000000000815260040180806020018281038252600c8152602001807f446f672f6e6f742d6c697665000000000000000000000000000000000000000081525060200191505060405180910390fd5b6000807f000000000000000000000000000000000000000000000000000000000000000073ffffffffffffffffffffffffffffffffffffffff16632424be5c87876040518363ffffffff1660e01b8152600401808381526020018273ffffffffffffffffffffffffffffffffffffffff16815260200192505050604080518083038186803b1580156114a057600080fd5b505afa1580156114b4573d6000803e3d6000fd5b505050506040513d60408110156114ca57600080fd5b810190808051906020019092919080519060200190929190505050915091506114f1611dbd565b600160008881526020019081526020016000206040518060800160405290816000820160009054906101000a900473ffffffffffffffffffffffffffffffffffffffff1673ffffffffffffffffffffffffffffffffffffffff1673ffffffffffffffffffffffffffffffffffffffff168152602001600182015481526020016002820154815260200160038201548152505090506000806000807f000000000000000000000000000000000000000000000000000000000000000073ffffffffffffffffffffffffffffffffffffffff1663d9638d368c6040518263ffffffff1660e01b81526004018082815260200191505060a06040518083038186803b1580156115fc57600080fd5b505afa158015611610573d6000803e3d6000fd5b505050506040513d60a081101561162657600080fd5b8101908080519060200190929190805190602001909291908051906020019092919080519060200190929190805190602001909291905050509091929350905080945081935082955050505060008111801561169357506116878684611d5d565b6116918883611d5d565b105b611705576040517f08c379a000000000000000000000000000000000000000000000000000000000815260040180806020018281038252600e8152602001807f446f672f6e6f742d756e7361666500000000000000000000000000000000000081525060200191505060405180910390fd5b60055460045411801561171f575084606001518560400151115b611791576040517f08c379a00000000000000000000000000000000000000000000000000000000081526004018080602001828103825260198152602001807f446f672f6c69717569646174696f6e2d6c696d69742d6869740000000000000081525060200191505060405180910390fd5b60006117ad600554600454038760600151886040015103611d89565b90506117e0878760200151866117cb85670de0b6b3a7640000611d5d565b816117d257fe5b04816117da57fe5b04611d89565b94508487111561186957826117f786890386611d5d565b101561180557869450611868565b826118108686611d5d565b1015611867576040517f08c379a000000000000000000000000000000000000000000000000000000000815260040180806020018281038252602a815260200180611dfc602a913960400191505060405180910390fd5b5b5b50506000856118788886611d5d565b8161187f57fe5b049050600081116118f8576040517f08c379a00000000000000000000000000000000000000000000000000000000081526004018080602001828103825260108152602001807f446f672f6e756c6c2d61756374696f6e0000000000000000000000000000000081525060200191505060405180910390fd5b7f8000000000000000000000000000000000000000000000000000000000000000841115801561194857507f80000000000000000000000000000000000000000000000000000000000000008111155b6119ba576040517f08c379a000000000000000000000000000000000000000000000000000000000815260040180806020018281038252600c8152602001807f446f672f6f766572666c6f77000000000000000000000000000000000000000081525060200191505060405180910390fd5b7f000000000000000000000000000000000000000000000000000000000000000073ffffffffffffffffffffffffffffffffffffffff16637bab3f408c8c8860000151600260009054906101000a900473ffffffffffffffffffffffffffffffffffffffff16866000038a6000036040518763ffffffff1660e01b8152600401808781526020018673ffffffffffffffffffffffffffffffffffffffff1681526020018573ffffffffffffffffffffffffffffffffffffffff1681526020018473ffffffffffffffffffffffffffffffffffffffff1681526020018381526020018281526020019650505050505050600060405180830381600087803b158015611ac357600080fd5b505af1158015611ad7573d6000803e3d6000fd5b505050506000611ae78585611d5d565b9050600260009054906101000a900473ffffffffffffffffffffffffffffffffffffffff1673ffffffffffffffffffffffffffffffffffffffff1663697efb78826040518263ffffffff1660e01b815260040180828152602001915050600060405180830381600087803b158015611b5e57600080fd5b505af1158015611b72573d6000803e3d6000fd5b505050506000670de0b6b3a7640000611b8f838960200151611d5d565b81611b9657fe5b049050611ba560055482611da3565b600581905550611bb9876060015182611da3565b600160008f815260200190815260200160002060030181905550866000015173ffffffffffffffffffffffffffffffffffffffff1663898eb26782858f8f6040518563ffffffff1660e01b8152600401808581526020018481526020018373ffffffffffffffffffffffffffffffffffffffff1681526020018273ffffffffffffffffffffffffffffffffffffffff168152602001945050505050602060405180830381600087803b158015611c6e57600080fd5b505af1158015611c82573d6000803e3d6000fd5b505050506040513d6020811015611c9857600080fd5b8101908080519060200190929190505050995050888b73ffffffffffffffffffffffffffffffffffffffff168d7f85258d09e1e4ef299ff3fc11e74af99563f022d21f3f940db982229dc2a3358c8589868c60000151604051808581526020018481526020018381526020018273ffffffffffffffffffffffffffffffffffffffff16815260200194505050505060405180910390a450505050505050509392505050565b60055481565b6000828284039150811115611d5757600080fd5b92915050565b600080821480611d7a5750828283850292508281611d7757fe5b04145b611d8357600080fd5b92915050565b600081831115611d995781611d9b565b825b905092915050565b6000828284019150811015611db757600080fd5b92915050565b6040518060800160405280600073ffffffffffffffffffffffffffffffffffffffff168152602001600081526020016000815260200160008152509056fe446f672f64757374792d61756374696f6e2d66726f6d2d7061727469616c2d6c69717569646174696f6ea2646970667358221220c5a423b91201ac94a60c346c23d028f553a7c32a51e369ebc6e54aae6686567b64736f6c634300060c0033",
  "devdoc": {
    "kind": "dev",
    "methods": {},
    "version": 1
  },
  "userdoc": {
    "kind": "user",
    "methods": {},
    "version": 1
  },
  "storageLayout": {
    "storage": [
      {
        "astId": 4093,
        "contract": "contracts/dog.sol:Dog",
        "label": "wards",
        "offset": 0,
        "slot": "0",
        "type": "t_mapping(t_address,t_uint256)"
      },
      {
        "astId": 4158,
        "contract": "contracts/dog.sol:Dog",
        "label": "ilks",
        "offset": 0,
        "slot": "1",
        "type": "t_mapping(t_bytes32,t_struct(Ilk)4152_storage)"
      },
      {
        "astId": 4160,
        "contract": "contracts/dog.sol:Dog",
        "label": "vow",
        "offset": 0,
        "slot": "2",
        "type": "t_contract(VowLike)4089"
      },
      {
        "astId": 4162,
        "contract": "contracts/dog.sol:Dog",
        "label": "live",
        "offset": 0,
        "slot": "3",
        "type": "t_uint256"
      },
      {
        "astId": 4164,
        "contract": "contracts/dog.sol:Dog",
        "label": "Hole",
        "offset": 0,
        "slot": "4",
        "type": "t_uint256"
      },
      {
        "astId": 4166,
        "contract": "contracts/dog.sol:Dog",
        "label": "Dirt",
        "offset": 0,
        "slot": "5",
        "type": "t_uint256"
      }
    ],
    "types": {
      "t_address": {
        "encoding": "inplace",
        "label": "address",
        "numberOfBytes": "20"
      },
      "t_bytes32": {
        "encoding": "inplace",
        "label": "bytes32",
        "numberOfBytes": "32"
      },
      "t_contract(VowLike)4089": {
        "encoding": "inplace",
        "label": "contract VowLike",
        "numberOfBytes": "20"
      },
      "t_mapping(t_address,t_uint256)": {
        "encoding": "mapping",
        "key": "t_address",
        "label": "mapping(address => uint256)",
        "numberOfBytes": "32",
        "value": "t_uint256"
      },
      "t_mapping(t_bytes32,t_struct(Ilk)4152_storage)": {
        "encoding": "mapping",
        "key": "t_bytes32",
        "label": "mapping(bytes32 => struct Dog.Ilk)",
        "numberOfBytes": "32",
        "value": "t_struct(Ilk)4152_storage"
      },
      "t_struct(Ilk)4152_storage": {
        "encoding": "inplace",
        "label": "struct Dog.Ilk",
        "members": [
          {
            "astId": 4145,
            "contract": "contracts/dog.sol:Dog",
            "label": "clip",
            "offset": 0,
            "slot": "0",
            "type": "t_address"
          },
          {
            "astId": 4147,
            "contract": "contracts/dog.sol:Dog",
            "label": "chop",
            "offset": 0,
            "slot": "1",
            "type": "t_uint256"
          },
          {
            "astId": 4149,
            "contract": "contracts/dog.sol:Dog",
            "label": "hole",
            "offset": 0,
            "slot": "2",
            "type": "t_uint256"
          },
          {
            "astId": 4151,
            "contract": "contracts/dog.sol:Dog",
            "label": "dirt",
            "offset": 0,
            "slot": "3",
            "type": "t_uint256"
          }
        ],
        "numberOfBytes": "128"
      },
      "t_uint256": {
        "encoding": "inplace",
        "label": "uint256",
        "numberOfBytes": "32"
      }
    }
  }
}