{
  "address": "0x9ab02CEF2f24940D3dD444369F0EC33821D64830",
  "abi": [
    {
      "inputs": [
        {
          "internalType": "address",
          "name": "vat_",
          "type": "address"
        },
        {
          "internalType": "address",
          "name": "gem_",
          "type": "address"
        }
      ],
      "stateMutability": "nonpayable",
      "type": "constructor"
    },
    {
      "anonymous": false,
      "inputs": [
        {
          "indexed": false,
          "internalType": "uint256",
          "name": "id",
          "type": "uint256"
        },
        {
          "indexed": false,
          "internalType": "uint256",
          "name": "lot",
          "type": "uint256"
        },
        {
          "indexed": false,
          "internalType": "uint256",
          "name": "bid",
          "type": "uint256"
        },
        {
          "indexed": true,
          "internalType": "address",
          "name": "gal",
          "type": "address"
        }
      ],
      "name": "Kick",
      "type": "event"
    },
    {
      "inputs": [],
      "name": "beg",
      "outputs": [
        {
          "internalType": "uint256",
          "name": "",
          "type": "uint256"
        }
      ],
      "stateMutability": "view",
      "type": "function"
    },
    {
      "inputs": [
        {
          "internalType": "uint256",
          "name": "",
          "type": "uint256"
        }
      ],
      "name": "bids",
      "outputs": [
        {
          "internalType": "uint256",
          "name": "bid",
          "type": "uint256"
        },
        {
          "internalType": "uint256",
          "name": "lot",
          "type": "uint256"
        },
        {
          "internalType": "address",
          "name": "guy",
          "type": "address"
        },
        {
          "internalType": "uint48",
          "name": "tic",
          "type": "uint48"
        },
        {
          "internalType": "uint48",
          "name": "end",
          "type": "uint48"
        }
      ],
      "stateMutability": "view",
      "type": "function"
    },
    {
      "inputs": [],
      "name": "cage",
      "outputs": [],
      "stateMutability": "nonpayable",
      "type": "function"
    },
    {
      "inputs": [
        {
          "internalType": "uint256",
          "name": "id",
          "type": "uint256"
        }
      ],
      "name": "deal",
      "outputs": [],
      "stateMutability": "nonpayable",
      "type": "function"
    },
    {
      "inputs": [
        {
          "internalType": "uint256",
          "name": "id",
          "type": "uint256"
        },
        {
          "internalType": "uint256",
          "name": "lot",
          "type": "uint256"
        },
        {
          "internalType": "uint256",
          "name": "bid",
          "type": "uint256"
        }
      ],
      "name": "dent",
      "outputs": [],
      "stateMutability": "nonpayable",
      "type": "function"
    },
    {
      "inputs": [
        {
          "internalType": "address",
          "name": "usr",
          "type": "address"
        }
      ],
      "name": "deny",
      "outputs": [],
      "stateMutability": "nonpayable",
      "type": "function"
    },
    {
      "inputs": [
        {
          "internalType": "bytes32",
          "name": "what",
          "type": "bytes32"
        },
        {
          "internalType": "uint256",
          "name": "data",
          "type": "uint256"
        }
      ],
      "name": "file",
      "outputs": [],
      "stateMutability": "nonpayable",
      "type": "function"
    },
    {
      "inputs": [],
      "name": "gem",
      "outputs": [
        {
          "internalType": "contract GemLike",
          "name": "",
          "type": "address"
        }
      ],
      "stateMutability": "view",
      "type": "function"
    },
    {
      "inputs": [
        {
          "internalType": "address",
          "name": "gal",
          "type": "address"
        },
        {
          "internalType": "uint256",
          "name": "lot",
          "type": "uint256"
        },
        {
          "internalType": "uint256",
          "name": "bid",
          "type": "uint256"
        }
      ],
      "name": "kick",
      "outputs": [
        {
          "internalType": "uint256",
          "name": "id",
          "type": "uint256"
        }
      ],
      "stateMutability": "nonpayable",
      "type": "function"
    },
    {
      "inputs": [],
      "name": "kicks",
      "outputs": [
        {
          "internalType": "uint256",
          "name": "",
          "type": "uint256"
        }
      ],
      "stateMutability": "view",
      "type": "function"
    },
    {
      "inputs": [],
      "name": "live",
      "outputs": [
        {
          "internalType": "uint256",
          "name": "",
          "type": "uint256"
        }
      ],
      "stateMutability": "view",
      "type": "function"
    },
    {
      "inputs": [],
      "name": "pad",
      "outputs": [
        {
          "internalType": "uint256",
          "name": "",
          "type": "uint256"
        }
      ],
      "stateMutability": "view",
      "type": "function"
    },
    {
      "inputs": [
        {
          "internalType": "address",
          "name": "usr",
          "type": "address"
        }
      ],
      "name": "rely",
      "outputs": [],
      "stateMutability": "nonpayable",
      "type": "function"
    },
    {
      "inputs": [],
      "name": "tau",
      "outputs": [
        {
          "internalType": "uint48",
          "name": "",
          "type": "uint48"
        }
      ],
      "stateMutability": "view",
      "type": "function"
    },
    {
      "inputs": [
        {
          "internalType": "uint256",
          "name": "id",
          "type": "uint256"
        }
      ],
      "name": "tick",
      "outputs": [],
      "stateMutability": "nonpayable",
      "type": "function"
    },
    {
      "inputs": [],
      "name": "ttl",
      "outputs": [
        {
          "internalType": "uint48",
          "name": "",
          "type": "uint48"
        }
      ],
      "stateMutability": "view",
      "type": "function"
    },
    {
      "inputs": [],
      "name": "vat",
      "outputs": [
        {
          "internalType": "contract VatLike",
          "name": "",
          "type": "address"
        }
      ],
      "stateMutability": "view",
      "type": "function"
    },
    {
      "inputs": [],
      "name": "vow",
      "outputs": [
        {
          "internalType": "address",
          "name": "",
          "type": "address"
        }
      ],
      "stateMutability": "view",
      "type": "function"
    },
    {
      "inputs": [
        {
          "internalType": "address",
          "name": "",
          "type": "address"
        }
      ],
      "name": "wards",
      "outputs": [
        {
          "internalType": "uint256",
          "name": "",
          "type": "uint256"
        }
      ],
      "stateMutability": "view",
      "type": "function"
    },
    {
      "inputs": [
        {
          "internalType": "uint256",
          "name": "id",
          "type": "uint256"
        }
      ],
      "name": "yank",
      "outputs": [],
      "stateMutability": "nonpayable",
      "type": "function"
    }
  ],
  "transactionHash": "0x3d32969a2b84f7438ec61daa1462fb6bf7fb28b7268112a1c01ca23e5aa7fa8b",
  "args": [
    "0x310DBaaB8ddE911C229821A997ff8B3b1D37aE1C",
    "0xdafE49Dbe2C36A72B30EdA50243651025074a385"
  ],
  "numDeployments": 1,
  "solcInputHash": "25002546a7989715c77b1a74b283bbd6",
  "bytecode": "0x6080604052670e92596fd62900006004556714d1120d7b160000600555612a30600660006101000a81548165ffffffffffff021916908365ffffffffffff1602179055506202a3006006806101000a81548165ffffffffffff021916908365ffffffffffff160217905550600060075534801561007b57600080fd5b506040516121ac3803806121ac8339818101604052604081101561009e57600080fd5b81019080805190602001909291908051906020019092919050505060016000803373ffffffffffffffffffffffffffffffffffffffff1673ffffffffffffffffffffffffffffffffffffffff1681526020019081526020016000208190555081600260006101000a81548173ffffffffffffffffffffffffffffffffffffffff021916908373ffffffffffffffffffffffffffffffffffffffff16021790555080600360006101000a81548173ffffffffffffffffffffffffffffffffffffffff021916908373ffffffffffffffffffffffffffffffffffffffff16021790555060016008819055505050612014806101986000396000f3fe608060405234801561001057600080fd5b506004361061012c5760003560e01c80637d780d82116100ad578063bf353dbb11610071578063bf353dbb14610477578063c959c42b146104cf578063cfc4af55146104fd578063cfdd330214610523578063fc7b6aee146105415761012c565b80637d780d821461036d5780639361266c1461038b578063957aa58c146103a95780639c52a7f1146103c7578063b7e9cd241461040b5761012c565b80635ff3a382116100f45780635ff3a38214610275578063626cb3c5146102b757806365fae35e146102eb578063692450091461032f5780637bd2bea7146103395761012c565b806326e027f11461013157806329ae81141461015f57806336569e77146101975780634423c5f1146101cb5780634e8b1dd51461024f575b600080fd5b61015d6004803603602081101561014757600080fd5b810190808035906020019092919050505061056f565b005b6101956004803603604081101561017557600080fd5b810190808035906020019092919080359060200190929190505050610879565b005b61019f610aad565b604051808273ffffffffffffffffffffffffffffffffffffffff16815260200191505060405180910390f35b6101f7600480360360208110156101e157600080fd5b8101908080359060200190929190505050610ad3565b604051808681526020018581526020018473ffffffffffffffffffffffffffffffffffffffff1681526020018365ffffffffffff1681526020018265ffffffffffff1681526020019550505050505060405180910390f35b610257610b4d565b604051808265ffffffffffff16815260200191505060405180910390f35b6102b56004803603606081101561028b57600080fd5b81019080803590602001909291908035906020019092919080359060200190929190505050610b65565b005b6102bf6113cf565b604051808273ffffffffffffffffffffffffffffffffffffffff16815260200191505060405180910390f35b61032d6004803603602081101561030157600080fd5b81019080803573ffffffffffffffffffffffffffffffffffffffff1690602001909291905050506113f5565b005b6103376114f0565b005b6103416115ef565b604051808273ffffffffffffffffffffffffffffffffffffffff16815260200191505060405180910390f35b610375611615565b6040518082815260200191505060405180910390f35b61039361161b565b6040518082815260200191505060405180910390f35b6103b1611621565b6040518082815260200191505060405180910390f35b610409600480360360208110156103dd57600080fd5b81019080803573ffffffffffffffffffffffffffffffffffffffff169060200190929190505050611627565b005b6104616004803603606081101561042157600080fd5b81019080803573ffffffffffffffffffffffffffffffffffffffff1690602001909291908035906020019092919080359060200190929190505050611722565b6040518082815260200191505060405180910390f35b6104b96004803603602081101561048d57600080fd5b81019080803573ffffffffffffffffffffffffffffffffffffffff169060200190929190505050611a3c565b6040518082815260200191505060405180910390f35b6104fb600480360360208110156104e557600080fd5b8101908080359060200190929190505050611a54565b005b610505611d61565b604051808265ffffffffffff16815260200191505060405180910390f35b61052b611d77565b6040518082815260200191505060405180910390f35b61056d6004803603602081101561055757600080fd5b8101908080359060200190929190505050611d7d565b005b6000600854146105e7576040517f08c379a00000000000000000000000000000000000000000000000000000000081526004018080602001828103825260128152602001807f466c6f707065722f7374696c6c2d6c697665000000000000000000000000000081525060200191505060405180910390fd5b600073ffffffffffffffffffffffffffffffffffffffff166001600083815260200190815260200160002060020160009054906101000a900473ffffffffffffffffffffffffffffffffffffffff1673ffffffffffffffffffffffffffffffffffffffff1614156106c0576040517f08c379a00000000000000000000000000000000000000000000000000000000081526004018080602001828103825260138152602001807f466c6f707065722f6775792d6e6f742d7365740000000000000000000000000081525060200191505060405180910390fd5b600260009054906101000a900473ffffffffffffffffffffffffffffffffffffffff1673ffffffffffffffffffffffffffffffffffffffff1663f24e23eb600960009054906101000a900473ffffffffffffffffffffffffffffffffffffffff166001600085815260200190815260200160002060020160009054906101000a900473ffffffffffffffffffffffffffffffffffffffff1660016000868152602001908152602001600020600001546040518463ffffffff1660e01b8152600401808473ffffffffffffffffffffffffffffffffffffffff1681526020018373ffffffffffffffffffffffffffffffffffffffff1681526020018281526020019350505050600060405180830381600087803b1580156107df57600080fd5b505af11580156107f3573d6000803e3d6000fd5b505050506001600082815260200190815260200160002060008082016000905560018201600090556002820160006101000a81549073ffffffffffffffffffffffffffffffffffffffff02191690556002820160146101000a81549065ffffffffffff021916905560028201601a6101000a81549065ffffffffffff0219169055505050565b60016000803373ffffffffffffffffffffffffffffffffffffffff1673ffffffffffffffffffffffffffffffffffffffff168152602001908152602001600020541461092d576040517f08c379a00000000000000000000000000000000000000000000000000000000081526004018080602001828103825260168152602001807f466c6f707065722f6e6f742d617574686f72697a65640000000000000000000081525060200191505060405180910390fd5b7f62656700000000000000000000000000000000000000000000000000000000008214156109615780600481905550610aa9565b7f70616400000000000000000000000000000000000000000000000000000000008214156109955780600581905550610aa8565b7f74746c00000000000000000000000000000000000000000000000000000000008214156109e75780600660006101000a81548165ffffffffffff021916908365ffffffffffff160217905550610aa7565b7f7461750000000000000000000000000000000000000000000000000000000000821415610a3857806006806101000a81548165ffffffffffff021916908365ffffffffffff160217905550610aa6565b6040517f08c379a000000000000000000000000000000000000000000000000000000000815260040180806020018281038252601f8152602001807f466c6f707065722f66696c652d756e7265636f676e697a65642d706172616d0081525060200191505060405180910390fd5b5b5b5b5050565b600260009054906101000a900473ffffffffffffffffffffffffffffffffffffffff1681565b60016020528060005260406000206000915090508060000154908060010154908060020160009054906101000a900473ffffffffffffffffffffffffffffffffffffffff16908060020160149054906101000a900465ffffffffffff169080600201601a9054906101000a900465ffffffffffff16905085565b600660009054906101000a900465ffffffffffff1681565b600160085414610bdd576040517f08c379a00000000000000000000000000000000000000000000000000000000081526004018080602001828103825260108152602001807f466c6f707065722f6e6f742d6c6976650000000000000000000000000000000081525060200191505060405180910390fd5b600073ffffffffffffffffffffffffffffffffffffffff166001600085815260200190815260200160002060020160009054906101000a900473ffffffffffffffffffffffffffffffffffffffff1673ffffffffffffffffffffffffffffffffffffffff161415610cb6576040517f08c379a00000000000000000000000000000000000000000000000000000000081526004018080602001828103825260138152602001807f466c6f707065722f6775792d6e6f742d7365740000000000000000000000000081525060200191505060405180910390fd5b426001600085815260200190815260200160002060020160149054906101000a900465ffffffffffff1665ffffffffffff161180610d24575060006001600085815260200190815260200160002060020160149054906101000a900465ffffffffffff1665ffffffffffff16145b610d96576040517f08c379a000000000000000000000000000000000000000000000000000000000815260040180806020018281038252601c8152602001807f466c6f707065722f616c72656164792d66696e69736865642d7469630000000081525060200191505060405180910390fd5b4260016000858152602001908152602001600020600201601a9054906101000a900465ffffffffffff1665ffffffffffff1611610e3b576040517f08c379a000000000000000000000000000000000000000000000000000000000815260040180806020018281038252601c8152602001807f466c6f707065722f616c72656164792d66696e69736865642d656e640000000081525060200191505060405180910390fd5b60016000848152602001908152602001600020600001548114610ec6576040517f08c379a00000000000000000000000000000000000000000000000000000000081526004018080602001828103825260188152602001807f466c6f707065722f6e6f742d6d61746368696e672d626964000000000000000081525060200191505060405180910390fd5b60016000848152602001908152602001600020600101548210610f51576040517f08c379a00000000000000000000000000000000000000000000000000000000081526004018080602001828103825260158152602001807f466c6f707065722f6c6f742d6e6f742d6c6f776572000000000000000000000081525060200191505060405180910390fd5b610f796001600085815260200190815260200160002060010154670de0b6b3a7640000611f6c565b610f8560045484611f6c565b1115610ff9576040517f08c379a000000000000000000000000000000000000000000000000000000000815260040180806020018281038252601d8152602001807f466c6f707065722f696e73756666696369656e742d646563726561736500000081525060200191505060405180910390fd5b6001600084815260200190815260200160002060020160009054906101000a900473ffffffffffffffffffffffffffffffffffffffff1673ffffffffffffffffffffffffffffffffffffffff163373ffffffffffffffffffffffffffffffffffffffff161461135957600260009054906101000a900473ffffffffffffffffffffffffffffffffffffffff1673ffffffffffffffffffffffffffffffffffffffff1663bb35783b336001600087815260200190815260200160002060020160009054906101000a900473ffffffffffffffffffffffffffffffffffffffff16846040518463ffffffff1660e01b8152600401808473ffffffffffffffffffffffffffffffffffffffff1681526020018373ffffffffffffffffffffffffffffffffffffffff1681526020018281526020019350505050600060405180830381600087803b15801561114957600080fd5b505af115801561115d573d6000803e3d6000fd5b5050505060006001600085815260200190815260200160002060020160149054906101000a900465ffffffffffff1665ffffffffffff1614156113035760006001600085815260200190815260200160002060020160009054906101000a900473ffffffffffffffffffffffffffffffffffffffff1673ffffffffffffffffffffffffffffffffffffffff16632a1d2b3c6040518163ffffffff1660e01b8152600401602060405180830381600087803b15801561121a57600080fd5b505af115801561122e573d6000803e3d6000fd5b505050506040513d602081101561124457600080fd5b810190808051906020019092919050505090506001600085815260200190815260200160002060020160009054906101000a900473ffffffffffffffffffffffffffffffffffffffff1673ffffffffffffffffffffffffffffffffffffffff16632506855a6112b38484611f98565b6040518263ffffffff1660e01b815260040180828152602001915050600060405180830381600087803b1580156112e957600080fd5b505af11580156112fd573d6000803e3d6000fd5b50505050505b336001600085815260200190815260200160002060020160006101000a81548173ffffffffffffffffffffffffffffffffffffffff021916908373ffffffffffffffffffffffffffffffffffffffff1602179055505b81600160008581526020019081526020016000206001018190555061139242600660009054906101000a900465ffffffffffff16611fb4565b6001600085815260200190815260200160002060020160146101000a81548165ffffffffffff021916908365ffffffffffff160217905550505050565b600960009054906101000a900473ffffffffffffffffffffffffffffffffffffffff1681565b60016000803373ffffffffffffffffffffffffffffffffffffffff1673ffffffffffffffffffffffffffffffffffffffff16815260200190815260200160002054146114a9576040517f08c379a00000000000000000000000000000000000000000000000000000000081526004018080602001828103825260168152602001807f466c6f707065722f6e6f742d617574686f72697a65640000000000000000000081525060200191505060405180910390fd5b60016000808373ffffffffffffffffffffffffffffffffffffffff1673ffffffffffffffffffffffffffffffffffffffff1681526020019081526020016000208190555050565b60016000803373ffffffffffffffffffffffffffffffffffffffff1673ffffffffffffffffffffffffffffffffffffffff16815260200190815260200160002054146115a4576040517f08c379a00000000000000000000000000000000000000000000000000000000081526004018080602001828103825260168152602001807f466c6f707065722f6e6f742d617574686f72697a65640000000000000000000081525060200191505060405180910390fd5b600060088190555033600960006101000a81548173ffffffffffffffffffffffffffffffffffffffff021916908373ffffffffffffffffffffffffffffffffffffffff160217905550565b600360009054906101000a900473ffffffffffffffffffffffffffffffffffffffff1681565b60045481565b60055481565b60085481565b60016000803373ffffffffffffffffffffffffffffffffffffffff1673ffffffffffffffffffffffffffffffffffffffff16815260200190815260200160002054146116db576040517f08c379a00000000000000000000000000000000000000000000000000000000081526004018080602001828103825260168152602001807f466c6f707065722f6e6f742d617574686f72697a65640000000000000000000081525060200191505060405180910390fd5b60008060008373ffffffffffffffffffffffffffffffffffffffff1673ffffffffffffffffffffffffffffffffffffffff1681526020019081526020016000208190555050565b600060016000803373ffffffffffffffffffffffffffffffffffffffff1673ffffffffffffffffffffffffffffffffffffffff16815260200190815260200160002054146117d8576040517f08c379a00000000000000000000000000000000000000000000000000000000081526004018080602001828103825260168152602001807f466c6f707065722f6e6f742d617574686f72697a65640000000000000000000081525060200191505060405180910390fd5b600160085414611850576040517f08c379a00000000000000000000000000000000000000000000000000000000081526004018080602001828103825260108152602001807f466c6f707065722f6e6f742d6c6976650000000000000000000000000000000081525060200191505060405180910390fd5b7fffffffffffffffffffffffffffffffffffffffffffffffffffffffffffffffff600754106118e7576040517f08c379a00000000000000000000000000000000000000000000000000000000081526004018080602001828103825260108152602001807f466c6f707065722f6f766572666c6f770000000000000000000000000000000081525060200191505060405180910390fd5b6007600081546001019190508190559050816001600083815260200190815260200160002060000181905550826001600083815260200190815260200160002060010181905550836001600083815260200190815260200160002060020160006101000a81548173ffffffffffffffffffffffffffffffffffffffff021916908373ffffffffffffffffffffffffffffffffffffffff16021790555061199f4260068054906101000a900465ffffffffffff16611fb4565b60016000838152602001908152602001600020600201601a6101000a81548165ffffffffffff021916908365ffffffffffff1602179055508373ffffffffffffffffffffffffffffffffffffffff167f7e8881001566f9f89aedb9c5dc3d856a2b81e5235a8196413ed484be91cc0df682858560405180848152602001838152602001828152602001935050505060405180910390a29392505050565b60006020528060005260406000206000915090505481565b600160085414611acc576040517f08c379a00000000000000000000000000000000000000000000000000000000081526004018080602001828103825260108152602001807f466c6f707065722f6e6f742d6c6976650000000000000000000000000000000081525060200191505060405180910390fd5b60006001600083815260200190815260200160002060020160149054906101000a900465ffffffffffff1665ffffffffffff1614158015611b765750426001600083815260200190815260200160002060020160149054906101000a900465ffffffffffff1665ffffffffffff161080611b7557504260016000838152602001908152602001600020600201601a9054906101000a900465ffffffffffff1665ffffffffffff16105b5b611be8576040517f08c379a00000000000000000000000000000000000000000000000000000000081526004018080602001828103825260148152602001807f466c6f707065722f6e6f742d66696e697368656400000000000000000000000081525060200191505060405180910390fd5b600360009054906101000a900473ffffffffffffffffffffffffffffffffffffffff1673ffffffffffffffffffffffffffffffffffffffff166340c10f196001600084815260200190815260200160002060020160009054906101000a900473ffffffffffffffffffffffffffffffffffffffff1660016000858152602001908152602001600020600101546040518363ffffffff1660e01b8152600401808373ffffffffffffffffffffffffffffffffffffffff16815260200182815260200192505050600060405180830381600087803b158015611cc757600080fd5b505af1158015611cdb573d6000803e3d6000fd5b505050506001600082815260200190815260200160002060008082016000905560018201600090556002820160006101000a81549073ffffffffffffffffffffffffffffffffffffffff02191690556002820160146101000a81549065ffffffffffff021916905560028201601a6101000a81549065ffffffffffff0219169055505050565b60068054906101000a900465ffffffffffff1681565b60075481565b4260016000838152602001908152602001600020600201601a9054906101000a900465ffffffffffff1665ffffffffffff1610611e22576040517f08c379a00000000000000000000000000000000000000000000000000000000081526004018080602001828103825260148152602001807f466c6f707065722f6e6f742d66696e697368656400000000000000000000000081525060200191505060405180910390fd5b60006001600083815260200190815260200160002060020160149054906101000a900465ffffffffffff1665ffffffffffff1614611ec8576040517f08c379a000000000000000000000000000000000000000000000000000000000815260040180806020018281038252601a8152602001807f466c6f707065722f6269642d616c72656164792d706c6163656400000000000081525060200191505060405180910390fd5b670de0b6b3a7640000611ef36005546001600085815260200190815260200160002060010154611f6c565b81611efa57fe5b046001600083815260200190815260200160002060010181905550611f314260068054906101000a900465ffffffffffff16611fb4565b60016000838152602001908152602001600020600201601a6101000a81548165ffffffffffff021916908365ffffffffffff16021790555050565b600080821480611f895750828283850292508281611f8657fe5b04145b611f9257600080fd5b92915050565b600081831115611faa57819050611fae565b8290505b92915050565b60008265ffffffffffff1682840191508165ffffffffffff161015611fd857600080fd5b9291505056fea26469706673582212204de9771b8fced76765240af18be1385540153d42883159e12e97fa658c735e8f64736f6c634300060c0033",
  "devdoc": {
    "kind": "dev",
    "methods": {},
    "version": 1
  },
  "userdoc": {
    "kind": "user",
    "methods": {},
    "version": 1
  },
  "storageLayout": {
    "storage": [
      {
        "astId": 43,
        "contract": "contracts/flop.sol:Flopper",
        "label": "wards",
        "offset": 0,
        "slot": "0",
        "type": "t_mapping(t_address,t_uint256)"
      },
      {
        "astId": 100,
        "contract": "contracts/flop.sol:Flopper",
        "label": "bids",
        "offset": 0,
        "slot": "1",
        "type": "t_mapping(t_uint256,t_struct(Bid)96_storage)"
      },
      {
        "astId": 102,
        "contract": "contracts/flop.sol:Flopper",
        "label": "vat",
        "offset": 0,
        "slot": "2",
        "type": "t_contract(VatLike)20"
      },
      {
        "astId": 104,
        "contract": "contracts/flop.sol:Flopper",
        "label": "gem",
        "offset": 0,
        "slot": "3",
        "type": "t_contract(GemLike)28"
      },
      {
        "astId": 110,
        "contract": "contracts/flop.sol:Flopper",
        "label": "beg",
        "offset": 0,
        "slot": "4",
        "type": "t_uint256"
      },
      {
        "astId": 113,
        "contract": "contracts/flop.sol:Flopper",
        "label": "pad",
        "offset": 0,
        "slot": "5",
        "type": "t_uint256"
      },
      {
        "astId": 116,
        "contract": "contracts/flop.sol:Flopper",
        "label": "ttl",
        "offset": 0,
        "slot": "6",
        "type": "t_uint48"
      },
      {
        "astId": 119,
        "contract": "contracts/flop.sol:Flopper",
        "label": "tau",
        "offset": 6,
        "slot": "6",
        "type": "t_uint48"
      },
      {
        "astId": 122,
        "contract": "contracts/flop.sol:Flopper",
        "label": "kicks",
        "offset": 0,
        "slot": "7",
        "type": "t_uint256"
      },
      {
        "astId": 124,
        "contract": "contracts/flop.sol:Flopper",
        "label": "live",
        "offset": 0,
        "slot": "8",
        "type": "t_uint256"
      },
      {
        "astId": 126,
        "contract": "contracts/flop.sol:Flopper",
        "label": "vow",
        "offset": 0,
        "slot": "9",
        "type": "t_address"
      }
    ],
    "types": {
      "t_address": {
        "encoding": "inplace",
        "label": "address",
        "numberOfBytes": "20"
      },
      "t_contract(GemLike)28": {
        "encoding": "inplace",
        "label": "contract GemLike",
        "numberOfBytes": "20"
      },
      "t_contract(VatLike)20": {
        "encoding": "inplace",
        "label": "contract VatLike",
        "numberOfBytes": "20"
      },
      "t_mapping(t_address,t_uint256)": {
        "encoding": "mapping",
        "key": "t_address",
        "label": "mapping(address => uint256)",
        "numberOfBytes": "32",
        "value": "t_uint256"
      },
      "t_mapping(t_uint256,t_struct(Bid)96_storage)": {
        "encoding": "mapping",
        "key": "t_uint256",
        "label": "mapping(uint256 => struct Flopper.Bid)",
        "numberOfBytes": "32",
        "value": "t_struct(Bid)96_storage"
      },
      "t_struct(Bid)96_storage": {
        "encoding": "inplace",
        "label": "struct Flopper.Bid",
        "members": [
          {
            "astId": 87,
            "contract": "contracts/flop.sol:Flopper",
            "label": "bid",
            "offset": 0,
            "slot": "0",
            "type": "t_uint256"
          },
          {
            "astId": 89,
            "contract": "contracts/flop.sol:Flopper",
            "label": "lot",
            "offset": 0,
            "slot": "1",
            "type": "t_uint256"
          },
          {
            "astId": 91,
            "contract": "contracts/flop.sol:Flopper",
            "label": "guy",
            "offset": 0,
            "slot": "2",
            "type": "t_address"
          },
          {
            "astId": 93,
            "contract": "contracts/flop.sol:Flopper",
            "label": "tic",
            "offset": 20,
            "slot": "2",
            "type": "t_uint48"
          },
          {
            "astId": 95,
            "contract": "contracts/flop.sol:Flopper",
            "label": "end",
            "offset": 26,
            "slot": "2",
            "type": "t_uint48"
          }
        ],
        "numberOfBytes": "96"
      },
      "t_uint256": {
        "encoding": "inplace",
        "label": "uint256",
        "numberOfBytes": "32"
      },
      "t_uint48": {
        "encoding": "inplace",
        "label": "uint48",
        "numberOfBytes": "6"
      }
    }
  }
}