{
  "address": "0x940c09c598662b4669e7A6698C54B3B70c7BFeFf",
  "abi": [
    {
      "inputs": [
        {
          "internalType": "address",
          "name": "vat_",
          "type": "address"
        },
        {
          "internalType": "bytes32",
          "name": "ilk_",
          "type": "bytes32"
        },
        {
          "internalType": "address",
          "name": "gem_",
          "type": "address"
        }
      ],
      "stateMutability": "nonpayable",
      "type": "constructor"
    },
    {
      "anonymous": false,
      "inputs": [],
      "name": "Cage",
      "type": "event"
    },
    {
      "anonymous": false,
      "inputs": [
        {
          "indexed": true,
          "internalType": "address",
          "name": "usr",
          "type": "address"
        }
      ],
      "name": "Deny",
      "type": "event"
    },
    {
      "anonymous": false,
      "inputs": [
        {
          "indexed": true,
          "internalType": "address",
          "name": "usr",
          "type": "address"
        },
        {
          "indexed": false,
          "internalType": "uint256",
          "name": "wad",
          "type": "uint256"
        }
      ],
      "name": "Exit",
      "type": "event"
    },
    {
      "anonymous": false,
      "inputs": [
        {
          "indexed": true,
          "internalType": "address",
          "name": "usr",
          "type": "address"
        },
        {
          "indexed": false,
          "internalType": "uint256",
          "name": "wad",
          "type": "uint256"
        }
      ],
      "name": "Join",
      "type": "event"
    },
    {
      "anonymous": false,
      "inputs": [
        {
          "indexed": true,
          "internalType": "address",
          "name": "usr",
          "type": "address"
        }
      ],
      "name": "Rely",
      "type": "event"
    },
    {
      "inputs": [],
      "name": "cage",
      "outputs": [],
      "stateMutability": "nonpayable",
      "type": "function"
    },
    {
      "inputs": [],
      "name": "dec",
      "outputs": [
        {
          "internalType": "uint256",
          "name": "",
          "type": "uint256"
        }
      ],
      "stateMutability": "view",
      "type": "function"
    },
    {
      "inputs": [
        {
          "internalType": "address",
          "name": "usr",
          "type": "address"
        }
      ],
      "name": "deny",
      "outputs": [],
      "stateMutability": "nonpayable",
      "type": "function"
    },
    {
      "inputs": [
        {
          "internalType": "address",
          "name": "usr",
          "type": "address"
        },
        {
          "internalType": "uint256",
          "name": "wad",
          "type": "uint256"
        }
      ],
      "name": "exit",
      "outputs": [],
      "stateMutability": "nonpayable",
      "type": "function"
    },
    {
      "inputs": [],
      "name": "gem",
      "outputs": [
        {
          "internalType": "contract GemLike",
          "name": "",
          "type": "address"
        }
      ],
      "stateMutability": "view",
      "type": "function"
    },
    {
      "inputs": [],
      "name": "ilk",
      "outputs": [
        {
          "internalType": "bytes32",
          "name": "",
          "type": "bytes32"
        }
      ],
      "stateMutability": "view",
      "type": "function"
    },
    {
      "inputs": [
        {
          "internalType": "address",
          "name": "usr",
          "type": "address"
        },
        {
          "internalType": "uint256",
          "name": "wad",
          "type": "uint256"
        }
      ],
      "name": "join",
      "outputs": [],
      "stateMutability": "nonpayable",
      "type": "function"
    },
    {
      "inputs": [],
      "name": "live",
      "outputs": [
        {
          "internalType": "uint256",
          "name": "",
          "type": "uint256"
        }
      ],
      "stateMutability": "view",
      "type": "function"
    },
    {
      "inputs": [
        {
          "internalType": "address",
          "name": "usr",
          "type": "address"
        }
      ],
      "name": "rely",
      "outputs": [],
      "stateMutability": "nonpayable",
      "type": "function"
    },
    {
      "inputs": [],
      "name": "vat",
      "outputs": [
        {
          "internalType": "contract VatLike",
          "name": "",
          "type": "address"
        }
      ],
      "stateMutability": "view",
      "type": "function"
    },
    {
      "inputs": [
        {
          "internalType": "address",
          "name": "",
          "type": "address"
        }
      ],
      "name": "wards",
      "outputs": [
        {
          "internalType": "uint256",
          "name": "",
          "type": "uint256"
        }
      ],
      "stateMutability": "view",
      "type": "function"
    }
  ],
  "transactionHash": "0xb219b7108520b0436d4a4acdf3ca46bdb4e092845d924af4f5896acefd02cc23",
  "args": [
    "0x310DBaaB8ddE911C229821A997ff8B3b1D37aE1C",
    "0x4241542d41000000000000000000000000000000000000000000000000000000",
    "0xdafE49Dbe2C36A72B30EdA50243651025074a385"
  ],
  "numDeployments": 1,
  "solcInputHash": "ed048294ed74b7abd11bdebd540fd1ff",
  "bytecode": "0x608060405234801561001057600080fd5b50604051610f67380380610f678339818101604052606081101561003357600080fd5b8101908080519060200190929190805190602001909291908051906020019092919050505060016000803373ffffffffffffffffffffffffffffffffffffffff1673ffffffffffffffffffffffffffffffffffffffff16815260200190815260200160002081905550600160058190555082600160006101000a81548173ffffffffffffffffffffffffffffffffffffffff021916908373ffffffffffffffffffffffffffffffffffffffff1602179055508160028190555080600360006101000a81548173ffffffffffffffffffffffffffffffffffffffff021916908373ffffffffffffffffffffffffffffffffffffffff160217905550600360009054906101000a900473ffffffffffffffffffffffffffffffffffffffff1673ffffffffffffffffffffffffffffffffffffffff1663313ce5676040518163ffffffff1660e01b815260040160206040518083038186803b15801561019557600080fd5b505afa1580156101a9573d6000803e3d6000fd5b505050506040513d60208110156101bf57600080fd5b81019080805190602001909291905050506004819055503373ffffffffffffffffffffffffffffffffffffffff167fdd0e34038ac38b2a1ce960229778ac48a8719bc900b6c4f8d0475c6e8b385a6060405160405180910390a2505050610d3c8061022b6000396000f3fe608060405234801561001057600080fd5b50600436106100a95760003560e01c8063957aa58c11610071578063957aa58c146101b25780639c52a7f1146101d0578063b3bcfa8214610214578063bf353dbb14610232578063c5ce281e1461028a578063ef693bed146102a8576100a9565b806336569e77146100ae5780633b4da69f146100e257806365fae35e1461013057806369245009146101745780637bd2bea71461017e575b600080fd5b6100b66102f6565b604051808273ffffffffffffffffffffffffffffffffffffffff16815260200191505060405180910390f35b61012e600480360360408110156100f857600080fd5b81019080803573ffffffffffffffffffffffffffffffffffffffff1690602001909291908035906020019092919050505061031c565b005b6101726004803603602081101561014657600080fd5b81019080803573ffffffffffffffffffffffffffffffffffffffff169060200190929190505050610670565b005b61017c6107ae565b005b610186610898565b604051808273ffffffffffffffffffffffffffffffffffffffff16815260200191505060405180910390f35b6101ba6108be565b6040518082815260200191505060405180910390f35b610212600480360360208110156101e657600080fd5b81019080803573ffffffffffffffffffffffffffffffffffffffff1690602001909291905050506108c4565b005b61021c610a02565b6040518082815260200191505060405180910390f35b6102746004803603602081101561024857600080fd5b81019080803573ffffffffffffffffffffffffffffffffffffffff169060200190929190505050610a08565b6040518082815260200191505060405180910390f35b610292610a20565b6040518082815260200191505060405180910390f35b6102f4600480360360408110156102be57600080fd5b81019080803573ffffffffffffffffffffffffffffffffffffffff16906020019092919080359060200190929190505050610a26565b005b600160009054906101000a900473ffffffffffffffffffffffffffffffffffffffff1681565b600160055414610394576040517f08c379a00000000000000000000000000000000000000000000000000000000081526004018080602001828103825260108152602001807f47656d4a6f696e2f6e6f742d6c6976650000000000000000000000000000000081525060200191505060405180910390fd5b600081121561040b576040517f08c379a00000000000000000000000000000000000000000000000000000000081526004018080602001828103825260108152602001807f47656d4a6f696e2f6f766572666c6f770000000000000000000000000000000081525060200191505060405180910390fd5b600160009054906101000a900473ffffffffffffffffffffffffffffffffffffffff1673ffffffffffffffffffffffffffffffffffffffff16637cdd3fde60025484846040518463ffffffff1660e01b8152600401808481526020018373ffffffffffffffffffffffffffffffffffffffff1681526020018281526020019350505050600060405180830381600087803b1580156104a857600080fd5b505af11580156104bc573d6000803e3d6000fd5b50505050600360009054906101000a900473ffffffffffffffffffffffffffffffffffffffff1673ffffffffffffffffffffffffffffffffffffffff166323b872dd3330846040518463ffffffff1660e01b8152600401808473ffffffffffffffffffffffffffffffffffffffff1681526020018373ffffffffffffffffffffffffffffffffffffffff1681526020018281526020019350505050602060405180830381600087803b15801561057157600080fd5b505af1158015610585573d6000803e3d6000fd5b505050506040513d602081101561059b57600080fd5b810190808051906020019092919050505061061e576040517f08c379a00000000000000000000000000000000000000000000000000000000081526004018080602001828103825260178152602001807f47656d4a6f696e2f6661696c65642d7472616e7366657200000000000000000081525060200191505060405180910390fd5b8173ffffffffffffffffffffffffffffffffffffffff167fb4e09949657f21548b58afe74e7b86cd2295da5ff1598ae1e5faecb1cf19ca95826040518082815260200191505060405180910390a25050565b60016000803373ffffffffffffffffffffffffffffffffffffffff1673ffffffffffffffffffffffffffffffffffffffff1681526020019081526020016000205414610724576040517f08c379a00000000000000000000000000000000000000000000000000000000081526004018080602001828103825260168152602001807f47656d4a6f696e2f6e6f742d617574686f72697a65640000000000000000000081525060200191505060405180910390fd5b60016000808373ffffffffffffffffffffffffffffffffffffffff1673ffffffffffffffffffffffffffffffffffffffff168152602001908152602001600020819055508073ffffffffffffffffffffffffffffffffffffffff167fdd0e34038ac38b2a1ce960229778ac48a8719bc900b6c4f8d0475c6e8b385a6060405160405180910390a250565b60016000803373ffffffffffffffffffffffffffffffffffffffff1673ffffffffffffffffffffffffffffffffffffffff1681526020019081526020016000205414610862576040517f08c379a00000000000000000000000000000000000000000000000000000000081526004018080602001828103825260168152602001807f47656d4a6f696e2f6e6f742d617574686f72697a65640000000000000000000081525060200191505060405180910390fd5b60006005819055507f2308ed18a14e800c39b86eb6ea43270105955ca385b603b64eca89f98ae8fbda60405160405180910390a1565b600360009054906101000a900473ffffffffffffffffffffffffffffffffffffffff1681565b60055481565b60016000803373ffffffffffffffffffffffffffffffffffffffff1673ffffffffffffffffffffffffffffffffffffffff1681526020019081526020016000205414610978576040517f08c379a00000000000000000000000000000000000000000000000000000000081526004018080602001828103825260168152602001807f47656d4a6f696e2f6e6f742d617574686f72697a65640000000000000000000081525060200191505060405180910390fd5b60008060008373ffffffffffffffffffffffffffffffffffffffff1673ffffffffffffffffffffffffffffffffffffffff168152602001908152602001600020819055508073ffffffffffffffffffffffffffffffffffffffff167f184450df2e323acec0ed3b5c7531b81f9b4cdef7914dfd4c0a4317416bb5251b60405160405180910390a250565b60045481565b60006020528060005260406000206000915090505481565b60025481565b7f8000000000000000000000000000000000000000000000000000000000000000811115610abc576040517f08c379a00000000000000000000000000000000000000000000000000000000081526004018080602001828103825260108152602001807f47656d4a6f696e2f6f766572666c6f770000000000000000000000000000000081525060200191505060405180910390fd5b600160009054906101000a900473ffffffffffffffffffffffffffffffffffffffff1673ffffffffffffffffffffffffffffffffffffffff16637cdd3fde60025433846000036040518463ffffffff1660e01b8152600401808481526020018373ffffffffffffffffffffffffffffffffffffffff1681526020018281526020019350505050600060405180830381600087803b158015610b5c57600080fd5b505af1158015610b70573d6000803e3d6000fd5b50505050600360009054906101000a900473ffffffffffffffffffffffffffffffffffffffff1673ffffffffffffffffffffffffffffffffffffffff1663a9059cbb83836040518363ffffffff1660e01b8152600401808373ffffffffffffffffffffffffffffffffffffffff16815260200182815260200192505050602060405180830381600087803b158015610c0757600080fd5b505af1158015610c1b573d6000803e3d6000fd5b505050506040513d6020811015610c3157600080fd5b8101908080519060200190929190505050610cb4576040517f08c379a00000000000000000000000000000000000000000000000000000000081526004018080602001828103825260178152602001807f47656d4a6f696e2f6661696c65642d7472616e7366657200000000000000000081525060200191505060405180910390fd5b8173ffffffffffffffffffffffffffffffffffffffff167f22d324652c93739755cf4581508b60875ebdd78c20c0cff5cf8e23452b299631826040518082815260200191505060405180910390a2505056fea264697066735822122034421fca1a7284a4a7e5c7c3ee61138a2430703b67d303c45d68a0986ada538f64736f6c634300060c0033",
  "devdoc": {
    "kind": "dev",
    "methods": {},
    "version": 1
  },
  "userdoc": {
    "kind": "user",
    "methods": {},
    "version": 1
  },
  "storageLayout": {
    "storage": [
      {
        "astId": 8808,
        "contract": "contracts/join.sol:GemJoin",
        "label": "wards",
        "offset": 0,
        "slot": "0",
        "type": "t_mapping(t_address,t_uint256)"
      },
      {
        "astId": 8860,
        "contract": "contracts/join.sol:GemJoin",
        "label": "vat",
        "offset": 0,
        "slot": "1",
        "type": "t_contract(VatLike)8804"
      },
      {
        "astId": 8862,
        "contract": "contracts/join.sol:GemJoin",
        "label": "ilk",
        "offset": 0,
        "slot": "2",
        "type": "t_bytes32"
      },
      {
        "astId": 8864,
        "contract": "contracts/join.sol:GemJoin",
        "label": "gem",
        "offset": 0,
        "slot": "3",
        "type": "t_contract(GemLike)8770"
      },
      {
        "astId": 8866,
        "contract": "contracts/join.sol:GemJoin",
        "label": "dec",
        "offset": 0,
        "slot": "4",
        "type": "t_uint256"
      },
      {
        "astId": 8868,
        "contract": "contracts/join.sol:GemJoin",
        "label": "live",
        "offset": 0,
        "slot": "5",
        "type": "t_uint256"
      }
    ],
    "types": {
      "t_address": {
        "encoding": "inplace",
        "label": "address",
        "numberOfBytes": "20"
      },
      "t_bytes32": {
        "encoding": "inplace",
        "label": "bytes32",
        "numberOfBytes": "32"
      },
      "t_contract(GemLike)8770": {
        "encoding": "inplace",
        "label": "contract GemLike",
        "numberOfBytes": "20"
      },
      "t_contract(VatLike)8804": {
        "encoding": "inplace",
        "label": "contract VatLike",
        "numberOfBytes": "20"
      },
      "t_mapping(t_address,t_uint256)": {
        "encoding": "mapping",
        "key": "t_address",
        "label": "mapping(address => uint256)",
        "numberOfBytes": "32",
        "value": "t_uint256"
      },
      "t_uint256": {
        "encoding": "inplace",
        "label": "uint256",
        "numberOfBytes": "32"
      }
    }
  }
}